:100000000C942A000C94A2070C94D5070C940808B1
:100010000C9447000C9447000C9447000C94470044
:100020000C9447000C9447000C9447000C94000774
:100030000C9447000C9447000C9447000C94470024
:100040000C94930C0C9447000C9447000C944700BC
:100050000C94470011241FBECFE5D8E0DEBFCDBF12
:1000600012E0A0E6B0E0EAE6FCE302C005900D92E3
:10007000AC3BB107D9F713E0ACEBB2E001C01D9285
:10008000AE33B107E1F70E94621D0C94331E0C944D
:100090000000EF92FF920F931F937B018C0120E0F1
:1000A00030E040E05FE40E94490388238CF0C801FF
:1000B000B70120E030E040E05FE40E94C1010E940F
:1000C00007049B01AC01205030404040504806C01E
:1000D000C801B7010E9407049B01AC01B901CA0124
:1000E0001F910F91FF90EF900895A0E0B0E0EBE733
:1000F000F0E00C94FC1DDC012B01FA019C91923084
:1001000008F439C1EB018881823008F433C194309E
:1001100069F4843009F02FC111969C91119789815F
:10012000981709F428C1A0E9B1E025C1843009F489
:1001300021C18230A9F4923009F01DC19A01AD01AC
:1001400088E0EA010990AE01E90109929E0181501F
:10015000C1F7E201898111969C918923818308C1AD
:10016000923009F407C112962D903C901397EB0141
:100170008A819B811496AD90BD90CD90DC901797AD
:10018000EC80FD800E811F819101281B390BB90184
:1001900037FF04C066277727621B730B6032710537
:1001A0000CF061C0121613066CF537014801062EDB
:1001B00004C096948794779467940A94D2F721E0C8
:1001C00030E040E050E004C0220F331F441F551FB1
:1001D0006A95D2F721503040404050402E213F21B7
:1001E00040235123211531054105510521F021E01E
:1001F00030E040E050E079018A01E628F72808293C
:1002000019293CC0232BD1F1260E371E350146019A
:10021000062E04C096948794779467940A94D2F734
:1002200021E030E040E050E004C0220F331F441FC3
:10023000551F6A95D2F721503040404050402A2146
:100240003B214C215D21211531054105510521F04E
:1002500021E030E040E050E059016A01A628B728CB
:10026000C828D9280BC0821593052CF01C01AA249C
:10027000BB24650103C0EE24FF24870111969C91E5
:10028000D20111968C91981709F445C0992339F041
:10029000A80197012A193B094C095D0906C0A6016E
:1002A00095012E193F09400B510B57FD08C01182D3
:1002B0003382228224833583468357831DC081E0A5
:1002C00081833382228288279927DC01821B930B4A
:1002D000A40BB50B84839583A683B7830DC0220F2F
:1002E000331F441F551F24833583468357838281E0
:1002F000938101979383828324813581468157813D
:10030000DA01C9010197A109B1098F5F9F4FAF4F72
:10031000BF4328F30BC0918333822282EA0CFB1C7B
:100320000C1D1D1DE482F5820683178383E0808304
:10033000248135814681578157FF1AC0C901AA27F8
:1003400097FDA095BA2F81709070A070B0705695EF
:10035000479537952795822B932BA42BB52B848318
:100360009583A683B7838281938101969383828349
:10037000DF0101C0D201CD01CDB7DEB7E2E10C94BF
:10038000181EA0E2B0E0E7ECF1E00C94081E6983CF
:100390007A838B839C832D833E834F835887E9E048
:1003A000EE2EF12CEC0EFD1ECE010196B7010E943F
:1003B0007F058E010F5E1F4FCE010596B8010E948A
:1003C0007F058A8991E089278A8BC701B801AE0130
:1003D000475E5F4F0E9475000E94AA04A096E6E067
:1003E0000C94241EA0E2B0E0E8EFF1E00C94081EAB
:1003F00069837A838B839C832D833E834F835887C5
:10040000F9E0EF2EF12CEC0EFD1ECE010196B701A6
:100410000E947F058E010F5E1F4FCE010596B80129
:100420000E947F05C701B801AE01475E5F4F0E9481
:1004300075000E94AA04A096E6E00C94241EA0E297
:10044000B0E0E5E2F2E00C94FC1D69837A838B83D3
:100450009C832D833E834F835887CE010196BE0136
:10046000675F7F4F0E947F05CE010596BE016F5EDC
:100470007F4F0E947F059985923088F0898982306C
:10048000C8F0943019F4823051F404C0843029F457
:10049000923081F480E991E0C6C0923049F420E0C6
:1004A0009A858A89981321E02A87CE010996BBC0D4
:1004B000823049F420E09A858A89981321E02A8BBA
:1004C000CE014196B0C02D843E844F8458886D88FB
:1004D0007E888F88988CEE24FF248701AA24BB2471
:1004E000650140E050E060E070E0E0E0F0E0C10174
:1004F00081709070892BE9F0E60CF71C081D191D1E
:100500009A01AB012A0D3B1D4C1D5D1D80E090E062
:10051000A0E0B0E0E614F7040805190520F481E036
:1005200090E0A0E0B0E0BA01A901480F591F6A1F8E
:100530007B1FAA0CBB1CCC1CDD1C97FE08C081E0F5
:1005400090E0A0E0B0E0A82AB92ACA2ADB2A3196B6
:10055000E032F10549F0660C771C881C991C569412
:10056000479437942794C3CFFA85EA892B893C892D
:100570008B859C85280F391F2E5F3F4F17C0CA01FE
:1005800081709070892B61F016950795F794E79428
:1005900080E090E0A0E0B0E8E82AF92A0A2B1B2BC3
:1005A00076956795579547952F5F3F4F77FDE7CF36
:1005B0000CC0440F551F661F771F17FD4160EE0CDE
:1005C000FF1C001F111F21503040403090E05907A0
:1005D00090E0690790E4790760F32B8F3C8FDB0193
:1005E000CA018F779070A070B07080349105A1051A
:1005F000B10561F447FD0AC0E114F10401051105DC
:1006000029F0405C5F4F6F4F7F4F40781A8EFE1786
:1006100011F081E08A8F4D8F5E8F6F8F78A383E01A
:10062000898FCE0149960E94AA04A096E2E10C941B
:10063000181EA8E1B0E0EFE1F3E00C94081E698316
:100640007A838B839C832D833E834F83588789E0F5
:10065000E82EF12CEC0EFD1ECE010196B7010E9492
:100660007F058E010F5E1F4FCE010596B8010E94D7
:100670007F058985823040F08989823028F0C70162
:10068000B8010E94F70501C08FEF6896E6E00C9470
:10069000241EA8E1B0E0EFE4F3E00C94081E6983A7
:1006A0007A838B839C832D833E834F83588789E095
:1006B000E82EF12CEC0EFD1ECE010196B7010E9432
:1006C0007F058E010F5E1F4FCE010596B8010E9477
:1006D0007F058985823040F08989823028F0C70102
:1006E000B8010E94F70501C08FEF6896E6E00C9410
:1006F000241EA8E1B0E0EFE7F3E00C94081E698344
:100700007A838B839C832D833E834F83588789E034
:10071000E82EF12CEC0EFD1ECE010196B7010E94D1
:100720007F058E010F5E1F4FCE010596B8010E9416
:100730007F058985823040F08989823028F0C701A1
:10074000B8010E94F70501C081E06896E6E00C94CC
:10075000241EA8E0B0E0EFEAF3E00C94051E9B0134
:10076000AC0183E08983DA01C9018827B7FD83954D
:100770009927AA27BB27B82E211531054105510518
:1007800019F482E089833AC08823A9F0203080E000
:10079000380780E0480780E8580729F460E070E0F7
:1007A00080E09FEC30C0EE24FF248701E21AF30AB8
:1007B000040B150B02C079018A018EE1C82ED12CE1
:1007C000DC82CB82ED82FE820F831887C801B701DD
:1007D0000E945B0401971816190684F4082E04C0C1
:1007E000EE0CFF1C001F111F0A94D2F7ED82FE824F
:1007F0000F831887C81AD90ADC82CB82BA82CE014D
:1008000001960E94AA042896E9E00C94211EACE00F
:10081000B0E0EDE0F4E00C940C1E69837A838B83E6
:100820009C83CE010196BE016B5F7F4F0E947F05C6
:100830008D81823061F1823050F1843021F48E81DB
:10084000882351F12EC02F81388537FD20C06E815D
:100850002F3131051CF06623F9F023C08EE190E0C2
:10086000821B930B29853A854B855C8504C0569580
:100870004795379527958A95D2F76623B1F050951D
:100880004095309521953F4F4F4F5F4F0EC020E070
:1008900030E040E050E009C02FEF3FEF4FEF5FE75F
:1008A00004C020E030E040E050E8B901CA012C96D5
:1008B000E2E00C94281EEF92FF920F931F937B01AE
:1008C0008C0180E0E81680E0F80681E0080780E00F
:1008D000180788F48FEFE816F1040105110531F0CF
:1008E00028F088E090E0A0E0B0E017C080E090E061
:1008F000A0E0B0E012C080E0E81680E0F80680E0FA
:10090000080781E0180728F088E190E0A0E0B0E057
:1009100004C080E190E0A0E0B0E020E230E040E000
:1009200050E0281B390B4A0B5B0B04C0169507954A
:10093000F794E7948A95D2F7F701E856FE4F808145
:10094000281B310941095109C9011F910F91FF90DD
:10095000EF900895DF92EF92FF920F931F93FC01A7
:10096000E480F58006811781D1808081823048F44F
:1009700080E090E0A0E1B0E0E82AF92A0A2B1B2BE6
:10098000A5C0843009F49FC0823021F4EE24FF24F6
:10099000870105C0E114F1040105110519F4E0E037
:1009A000F0E096C0628173819FEF623879070CF0A6
:1009B0005BC022E83FEF261B370B2A3131052CF0B4
:1009C00020E030E040E050E02AC0B801A701022E4C
:1009D00004C076956795579547950A94D2F781E0BC
:1009E00090E0A0E0B0E004C0880F991FAA1FBB1FD1
:1009F0002A95D2F70197A109B1098E219F21A02341
:100A0000B1230097A105B10521F081E090E0A0E0BD
:100A1000B0E09A01AB01282B392B4A2B5B2BDA0172
:100A2000C9018F779070A070B07080349105A105D6
:100A3000B10539F427FF09C0205C3F4F4F4F5F4F8E
:100A400004C0215C3F4F4F4F5F4FE0E0F0E02030AB
:100A5000A0E03A07A0E04A07A0E45A0710F0E1E05E
:100A6000F0E079018A0127C06038710564F5FB0167
:100A7000E158FF4FD801C7018F779070A070B07018
:100A800080349105A105B10539F4E7FE0DC080E47D
:100A900090E0A0E0B0E004C08FE390E0A0E0B0E020
:100AA000E80EF91E0A1F1B1F17FF05C016950795B4
:100AB000F794E794319687E016950795F794E794B5
:100AC0008A95D1F705C0EE24FF248701EFEFF0E00F
:100AD0006E2F679566276795902F9F77D794DD24B3
:100AE000D7948E2F8695492F462B582F5D29B70115
:100AF000CA011F910F91FF90EF90DF900895FC01C4
:100B0000DB01408151812281622F6F7770E0221FCB
:100B10002227221F9381892F880F822B282F30E0D4
:100B2000991F9927991F11969C93119721153105AB
:100B3000A9F5411551056105710511F482E037C031
:100B400082E89FEF13969C938E9312979A01AB01C4
:100B500067E0220F331F441F551F6A95D1F783E0CA
:100B60008C930DC0220F331F441F551F12968D9179
:100B70009C911397019713969C938E931297203014
:100B800080E0380780E0480780E4580758F314965F
:100B90002D933D934D935C93179708952F3F310507
:100BA00079F4411551056105710519F484E08C93C0
:100BB000089564FF03C081E08C9312C01C9210C0A2
:100BC0002F57304013963C932E93129783E08C93CB
:100BD00087E0440F551F661F771F8A95D1F7706411
:100BE00014964D935D936D937C93179708951F937F
:100BF000DC01FB019C91923008F447C08081823077
:100C000008F443C0943051F411961C91843099F546
:100C10008181682F70E0611B71093FC0843021F031
:100C2000923031F48230B9F18181882389F12DC06D
:100C300011961C9111978230F1F081811817D9F427
:100C400012962D913C91139782819381821793077D
:100C500094F028173907BCF014968D919D910D9052
:100C6000BC91A02D248135814681578128173907F1
:100C70004A075B0718F4112341F00AC08217930753
:100C8000A407B50740F4112319F061E070E005C036
:100C90006FEF7FEF02C060E070E0CB011F9108951D
:100CA000DF93CF93CDB7DEB7E3E5F0E083E0808359
:100CB000A9E5B0E0E9E5F0E0808181608C93CF9117
:100CC000DF910895DF93CF9300D0CDB7DEB79A833D
:100CD000898389819A81009731F089819A819093E3
:100CE000BD028093BC020F900F90CF91DF910895C9
:100CF000DF93CF93CDB7DEB72E970FB6F894DEBF54
:100D00000FBECDBF6A877B878C879D878A859B8531
:100D1000AC85BD8520E83EE340E050E0BC01CD015C
:100D20000E94A01DDC01CB01689415F8B695A7952B
:100D3000979587951694D1F78E839F83A887B98757
:100D40008E819F81A885B98581509F4FAF4FBF4F3E
:100D5000892F9A2FAB2FBB278A839B83AC83BD83BC
:100D60008E8181958983E2E5F0E08981808310C0DE
:100D7000E8E5F0E08081882F90E081709070009726
:100D8000B9F3A8E5B0E0E8E5F0E0808181608C93FC
:100D90001E868A819B81AC81BD810097A105B1052A
:100DA00011F081E08E878A819B81AC81BD810197A2
:100DB000A109B1098A839B83AC83BD838E85882377
:100DC000B9F62E960FB6F894DEBF0FBECDBFCF9109
:100DD000DF910895DF93CF9300D000D000D0CDB73E
:100DE000DEB769837A838B839C835E834D832696EB
:100DF0000FB6F894DEBF0FBECDBFCF91DF9108953F
:100E00001F920F920FB60F9211242F933F934F937F
:100E10005F936F937F938F939F93AF93BF93EF9362
:100E2000FF93DF93CF93CDB7DEB78091BC02909153
:100E3000BD02009729F0E091BC02F091BD02099536
:100E4000CF91DF91FF91EF91BF91AF919F918F91E2
:100E50007F916F915F914F913F912F910F900FBEB6
:100E60000F901F901895DF93CF93CDB7DEB7A5E510
:100E7000B0E0E5E5F0E080818E7F8C93A5E5B0E001
:100E8000E5E5F0E0808182608C93A5E5B0E0E5E5E2
:100E9000F0E0808184608C93A5E5B0E0E5E5F0E0CA
:100EA000808188608C93A4E5B0E0E4E5F0E0808187
:100EB0008F7B8C93ABE5B0E0EBE5F0E08081806464
:100EC0008C93ABE5B0E0EBE5F0E0808180688C933B
:100ED000ABE5B0E0EBE5F0E0808180628C93CF91F0
:100EE000DF910895DF93CF9300D00F92CDB7DEB797
:100EF0009A8389836B8389819A810097E9F08B813A
:100F0000882339F489819A819093BF028093BE022D
:100F100013C08B81813039F489819A819093C10209
:100F20008093C00209C08B81823031F489819A811B
:100F30009093C3028093C2020F900F900F90CF91B5
:100F4000DF9108951F920F920FB60F9211242F93E5
:100F50003F934F935F936F937F938F939F93AF9341
:100F6000BF93EF93FF93DF93CF93CDB7DEB780911D
:100F7000BE029091BF02009729F0E091BE02F0916D
:100F8000BF020995CF91DF91FF91EF91BF91AF9192
:100F90009F918F917F916F915F914F913F912F9191
:100FA0000F900FBE0F901F9018951F920F920FB6C3
:100FB0000F9211242F933F934F935F936F937F93DF
:100FC0008F939F93AF93BF93EF93FF93DF93CF9351
:100FD000CDB7DEB78091C0029091C102009729F091
:100FE000E091C002F091C1020995CF91DF91FF918C
:100FF000EF91BF91AF919F918F917F916F915F9191
:101000004F913F912F910F900FBE0F901F90189509
:101010001F920F920FB60F9211242F933F934F936D
:101020005F936F937F938F939F93AF93BF93EF9350
:10103000FF93DF93CF93CDB7DEB78091C20290913B
:10104000C302009729F0E091C202F091C302099512
:10105000CF91DF91FF91EF91BF91AF919F918F91D0
:101060007F916F915F914F913F912F910F900FBEA4
:101070000F901F901895DF93CF9300D000D00F9260
:10108000CDB7DEB78C836D838D81843008F069C164
:101090008D81869581708B838D8181708A838C810F
:1010A000877089838C81883008F051C0AAE3B0E052
:1010B000EAE3F0E08081482F8981282F30E081E049
:1010C00090E002C0880F991F2A95E2F7809584234B
:1010D0008C93AAE3B0E0EAE3F0E08081482F8B81B3
:1010E000282F30E08981882F90E0B90102C0660F77
:1010F000771F8A95E2F7CB01842B8C93ABE3B0E0AA
:10110000EBE3F0E08081482F8981282F30E081E0F7
:1011100090E002C0880F991F2A95E2F780958423FA
:101120008C93ABE3B0E0EBE3F0E08081482F8A8161
:10113000282F30E08981882F90E0B90102C0660F26
:10114000771F8A95E2F7CB01842B8C930AC18C819F
:10115000883008F455C08C81803108F051C0A7E375
:10116000B0E0E7E3F0E08081482F8981282F30E06C
:1011700081E090E002C0880F991F2A95E2F78095E0
:1011800084238C93A7E3B0E0E7E3F0E08081482F6D
:101190008B81282F30E08981882F90E0B90102C02F
:1011A000660F771F8A95E2F7CB01842B8C93A8E317
:1011B000B0E0E8E3F0E08081482F8981282F30E01B
:1011C00081E090E002C0880F991F2A95E2F7809590
:1011D00084238C93A8E3B0E0E8E3F0E08081482F1B
:1011E0008A81282F30E08981882F90E0B90102C0E0
:1011F000660F771F8A95E2F7CB01842B8C93B1C0E1
:101200008C81803108F455C08C81883108F051C040
:10121000A4E3B0E0E4E3F0E08081482F8981282F47
:1012200030E081E090E002C0880F991F2A95E2F734
:10123000809584238C93A4E3B0E0E4E3F0E0808124
:10124000482F8B81282F30E08981882F90E0B901C9
:1012500002C0660F771F8A95E2F7CB01842B8C932F
:10126000A5E3B0E0E5E3F0E08081482F8981282FF5
:1012700030E081E090E002C0880F991F2A95E2F7E4
:10128000809584238C93A5E3B0E0E5E3F0E08081D2
:10129000482F8A81282F30E08981882F90E0B9017A
:1012A00002C0660F771F8A95E2F7CB01842B8C93DF
:1012B00058C08C81883108F454C08C81803208F089
:1012C00050C0A1E3B0E0E1E3F0E08081482F8981E4
:1012D000282F30E081E090E002C0880F991F2A9506
:1012E000E2F7809584238C93A1E3B0E0E1E3F0E0A2
:1012F0008081482F8B81282F30E08981882F90E0D2
:10130000B90102C0660F771F8A95E2F7CB01842BE3
:101310008C93A2E3B0E0E2E3F0E08081482F898182
:10132000282F30E081E090E002C0880F991F2A95B5
:10133000E2F7809584238C93A2E3B0E0E2E3F0E04F
:101340008081482F8A81282F30E08981882F90E082
:10135000B90102C0660F771F8A95E2F7CB01842B93
:101360008C930F900F900F900F900F90CF91DF9173
:101370000895DF93CF93CDB7DEB729970FB6F894D2
:10138000DEBF0FBECDBF8A836B838B81823008F0B6
:10139000CFC08A81877089838A81883060F58B818C
:1013A0008130A1F4ABE3B0E0EBE3F0E08081482FC3
:1013B0008981282F30E081E090E0022E02C0880F62
:1013C000991F0A94E2F7842B8C93B2C0ABE3B0E090
:1013D000EBE3F0E08081482F8981282F30E081E025
:1013E00090E0022E02C0880F991F0A94E2F78095C0
:1013F00084238C939DC08A81883098F18A818031C2
:1014000080F588E390E0998788878B81813091F41B
:10141000E8E3F0E08081482F8981282F30E081E0E7
:1014200090E0022E02C0880F991F0A94E2F7842BE5
:101430008F8312C0E8E3F0E08081482F8981282F54
:1014400030E081E090E0022E02C0880F991F0A94DC
:10145000E2F7809584238F838F81E885F9858083E7
:1014600067C08A81803198F18A81883180F5E5E30F
:10147000F0E0FE83ED838B81813091F4E5E3F0E0D1
:101480008081482F8981282F30E081E090E0022E72
:1014900002C0880F991F0A94E2F7842B8C8312C034
:1014A000E5E3F0E08081482F8981282F30E081E05A
:1014B00090E0022E02C0880F991F0A94E2F78095EF
:1014C00084238C838C81ED81FE81808331C08A816D
:1014D000883170F18A81803258F58B818130A1F496
:1014E000A2E3B0E0E2E3F0E08081482F8981282F79
:1014F00030E081E090E0022E02C0880F991F0A942C
:10150000E2F7842B8C9314C0A2E3B0E0E2E3F0E0B6
:101510008081482F8981282F30E081E090E0022EE1
:1015200002C0880F991F0A94E2F7809584238C9358
:1015300029960FB6F894DEBF0FBECDBFCF91DF91D5
:101540000895DF93CF9300D0CDB7DEB78A838A8129
:10155000877089838A818830A0F4ABE3B0E0EBE345
:10156000F0E08081482F8981282F30E081E090E0F1
:10157000022E02C0880F991F0A94E2F784278C93E9
:101580004DC08A818830B8F08A818031A0F4A8E308
:10159000B0E0E8E3F0E08081482F8981282F30E037
:1015A00081E090E0022E02C0880F991F0A94E2F7B2
:1015B00084278C9333C08A818031B8F08A81883146
:1015C000A0F4A5E3B0E0E5E3F0E08081482F898155
:1015D000282F30E081E090E0022E02C0880F991F92
:1015E0000A94E2F784278C9319C08A818831B0F07D
:1015F0008A81803298F4A2E3B0E0E2E3F0E08081F7
:10160000482F8981282F30E081E090E0022E02C02F
:10161000880F991F0A94E2F784278C930F900F90FC
:10162000CF91DF910895DF93CF9300D00F92CDB784
:10163000DEB78B838FEF8A838B81877089838B8161
:10164000883090F4E9E3F0E08081282F30E0898150
:10165000882F90E0A90102C0559547958A95E2F739
:10166000CA0181708A8347C08B818830A8F08B8142
:10167000803190F4E6E3F0E08081282F30E089812A
:10168000882F90E0A90102C0559547958A95E2F709
:10169000CA0181708A832FC08B818031A8F08B8131
:1016A000883190F4E3E3F0E08081282F30E08981F5
:1016B000882F90E0A90102C0559547958A95E2F7D9
:1016C000CA0181708A8317C08B818831A0F08B8119
:1016D000803288F4E0E3F0E08081282F30E08981D7
:1016E000882F90E0A90102C0559547958A95E2F7A9
:1016F000CA0181708A838A810F900F900F90CF91D9
:10170000DF910895DF93CF930F92CDB7DEB7898332
:101710008981803278F4A7E2B0E0E7E2F0E08081EE
:10172000807E8C93A7E2B0E0E7E2F0E090818981CF
:10173000892B8C930F90CF91DF910895DF93CF93F6
:10174000CDB7DEB7E7E2F0E01082A7E2B0E0E7E273
:10175000F0E0808180648C93A7E2B0E0E7E2F0E003
:1017600080818C93A7E2B0E0E7E2F0E080818C9387
:10177000E6E2F0E01082A6E2B0E0E6E2F0E080818E
:1017800080688C93A6E2B0E0E6E2F0E080818760BA
:101790008C93CF91DF910895DF93CF930F92CDB7C4
:1017A000DEB7898389810E94820BA6E2B0E0E6E27F
:1017B000F0E0808180648C93E6E2F0E080818295A5
:1017C0008F70882F90E0817090700097A9F3A6E247
:1017D000B0E0E6E2F0E0808180618C930E94FE0B35
:1017E0000F90CF91DF910895DF93CF93CDB7DEB700
:1017F000E5E2F0E08081CF91DF910895DF93CF9310
:1018000000D0CDB7DEB7E4E2F0E08081882F90E031
:101810009A838983E5E2F0E08081882F90E0382F79
:10182000222789819A81822B932B9A8389838981AC
:101830009A810F900F90CF91DF910895DF93CF930E
:101840000F92CDB7DEB7898389818830D0F4A0E5C7
:10185000B0E0E0E5F0E080818F718C93A0E5B0E02E
:10186000E0E5F0E08081282F8981882F90E0880FC3
:10187000991F82959295907F9827807F9827822B39
:101880008C930F90CF91DF910895DF93CF93CDB7D5
:10189000DEB7A6E2B0E0E6E2F0E0808180688C93FB
:1018A000CF91DF910895DF93CF93CDB7DEB7A6E256
:1018B000B0E0E6E2F0E080818F778C93CF91DF910A
:1018C0000895DF93CF93CDB7DEB7A6E2B0E0E6E2AE
:1018D000F0E0808188608C93CF91DF910895DF9351
:1018E000CF93CDB7DEB7A6E2B0E0E6E2F0E08081CC
:1018F000877F8C93CF91DF910895DF93CF9300D0B2
:10190000CDB7DEB79A83898389819A81009731F0B8
:1019100089819A819093C5028093C4020F900F90A1
:10192000CF91DF9108951F920F920FB60F9211245D
:101930002F933F934F935F936F937F938F939F93D7
:10194000AF93BF93EF93FF93DF93CF93CDB7DEB702
:101950008091C4029091C502009729F0E091C402E1
:10196000F091C5020995CF91DF91FF91EF91BF9161
:10197000AF919F918F917F916F915F914F913F9127
:101980002F910F900FBE0F901F901895DF93CF935C
:10199000CDB7DEB780E061E00E943B0881E061E006
:1019A0000E943B0882E061E00E943B0883E061E026
:1019B0000E943B08CF91DF910895DF93CF93CDB77D
:1019C000DEB764970FB6F894DEBF0FBECDBF898B2C
:1019D000188A8FEF8F878989282F30E03C8B2B8BDB
:1019E0008B899C8982309105C1F02B893C892330F9
:1019F000310534F48B899C898130910561F016C0E2
:101A00002B893C892330310559F08B899C8984309E
:101A1000910549F00BC01F860BC081E08F8708C07D
:101A200082E08F8705C083E08F8702C01A8A86C054
:101A30008F850E94130B882309F07EC080E090E020
:101A4000A8E4B2E48B879C87AD87BE876B857C85D5
:101A50008D859E8520E030E04AE755E40E941F0214
:101A6000DC01CB018F839887A987BA876F8178853E
:101A700089859A8520E030E040E85FE30E947903A1
:101A800088232CF481E090E09E838D833FC06F819A
:101A9000788589859A8520E03FEF4FE757E40E94DB
:101AA000190318164CF56B857C858D859E8520E085
:101AB00030E040E251E40E941F02DC01CB01BC0196
:101AC000CD010E944900DC01CB019E838D830FC0B4
:101AD00080E991E09C838B838B819C810197F1F756
:101AE0009C838B838D819E8101979E838D838D81C5
:101AF0009E81009769F714C06F81788589859A85E2
:101B00000E944900DC01CB019E838D838D819E81E3
:101B10009A83898389819A810197F1F79A838983CE
:101B20008F850E94130B882339F481E0888B8F8581
:101B30000E94130B8823D9F398899A8B8A8964961B
:101B40000FB6F894DEBF0FBECDBFCF91DF910895E1
:101B5000DF93CF93CDB7DEB780E162E00E943B0810
:101B600081E162E00E943B0882E162E00E943B0862
:101B700083E162E00E943B08CF91DF910895DF93FB
:101B8000CF9300D00F92CDB7DEB789838981282FFC
:101B900030E03B832A838A819B8181309105D1F09B
:101BA0002A813B81223031052CF48A819B81009768
:101BB00061F01EC02A813B812230310581F08A818B
:101BC0009B818330910581F013C080E161E00E9428
:101BD000B9090EC081E161E00E94B90909C082E142
:101BE00061E00E94B90904C083E161E00E94B90983
:101BF0000F900F900F90CF91DF910895DF93CF93C7
:101C000000D00F92CDB7DEB789838981282F30E0CD
:101C10003B832A838A819B8181309105D1F02A817F
:101C20003B81223031052CF48A819B81009761F041
:101C30001EC02A813B812230310581F08A819B813F
:101C40008330910581F013C080E160E00E94B90902
:101C50000EC081E160E00E94B90909C082E160E044
:101C60000E94B90904C083E160E00E94B9090F90A5
:101C70000F900F90CF91DF910895DF93CF9300D015
:101C80000F92CDB7DEB789838981282F30E03B835F
:101C90002A838A819B818130910521F12A813B81B0
:101CA000223031052CF48A819B81009761F046C077
:101CB0002A813B812230310521F18A819B81833049
:101CC000910571F13BC080E10E94130B813029F432
:101CD00080E160E00E94B90931C080E161E00E94CA
:101CE000B9092CC081E10E94130B813029F481E1F4
:101CF00060E00E94B90922C081E161E00E94B90957
:101D00001DC082E10E94130B813029F482E160E062
:101D10000E94B90913C082E161E00E94B9090EC0B6
:101D200083E10E94130B813029F483E160E00E947B
:101D3000B90904C083E161E00E94B9090F900F90D6
:101D40000F90CF91DF910895DF93CF930F92CDB78E
:101D5000DEB789838981982F91708CE0692F0E946A
:101D6000B90989818695982F91708BE0692F0E941F
:101D7000B909898186958695982F91708AE0692F97
:101D80000E94B9098981869586958695982F9170CC
:101D900089E0692F0E94B909898182958F70982FF7
:101DA000917088E0692F0E94B90989818295869592
:101DB0008770982F917087E0692F0E94B9098981F7
:101DC0008295869586958370982F917086E0692F0D
:101DD0000E94B9098981982F991F9927991F85E039
:101DE000692F0E94B9098DE061E00E94B9098DE078
:101DF00060E00E94B9090F90CF91DF910895DF93C1
:101E0000CF930F92CDB7DEB789838FE060E00E9459
:101E1000B9098EE060E00E94B90989810E94A40E90
:101E20000F90CF91DF910895DF93CF930F92CDB7AD
:101E3000DEB789838FE061E00E94B9098EE060E03F
:101E40000E94B90989810E94A40E0F90CF91DF9161
:101E50000895DF93CF93CDB7DEB78FE063E00E94A4
:101E60003B088EE063E00E943B088DE063E00E9447
:101E70003B088CE063E00E943B088BE063E00E943B
:101E80003B088AE063E00E943B0889E063E00E942F
:101E90003B0888E063E00E943B0887E063E00E9423
:101EA0003B0886E063E00E943B0885E063E00E9417
:101EB0003B0888E30E94FF0E8FE00E94FF0E81E046
:101EC0000E94FF0E86E00E94FF0ECF91DF910895E1
:101ED000DF93CF9300D00F92CDB7DEB79B838A8379
:101EE00019820EC08981282F30E08A819B81FC01F4
:101EF000E20FF31F80810E94140F89818F5F898315
:101F00008981282F30E08A819B81FC01E20FF31F39
:101F10008081882339F70F900F900F90CF91DF9138
:101F20000895DF93CF9300D00F92CDB7DEB78A83A9
:101F30006B8319828A81882321F48B81805889835D
:101F400006C08A81813019F48B818054898389810C
:101F50000E94FF0E0F900F900F90CF91DF91089588
:101F6000DF93CF93CDB7DEB768970FB6F894DEBF97
:101F70000FBECDBF6D8B7E8B8F8B988FCE0105965C
:101F80000F969C838B83EB81FC8110821A821982CD
:101F90008D899E89AF89B88DBB239CF481E090E048
:101FA0009A8389838D899E89AF89B88DB095A095D4
:101FB000909581959F4FAF4FBF4F8D8B9E8BAF8B71
:101FC000B88F8D899E89AF89B88D0097A105B1051D
:101FD00099F58B819C8101979C838B83EB81FC819C
:101FE00080E3808332C08B819C8101979C838B83AB
:101FF0008D899E89AF89B88D2AE030E040E050E0BD
:10200000BC01CD010E94BF1DDC01CB01805DEB81D5
:10201000FC8180838D899E89AF89B88D2AE030E06C
:1020200040E050E0BC01CD010E94BF1DDA01C901B2
:102030008D8B9E8BAF8BB88F8D899E89AF89B88D24
:10204000181619061A061B0674F289819A810097E0
:1020500049F08B819C8101979C838B83EB81FC8170
:102060008DE280838B819C810E94680F68960FB6F9
:10207000F894DEBF0FBECDBFCF91DF910895DF93FF
:10208000CF93CDB7DEB760970FB6F894DEBF0FBE23
:10209000CDBF6D877E878F87988B6D857E858F8579
:1020A00098890E940704DC01CB0189879A87AB8756
:1020B000BC8789859A85AB85BC85BC01CD010E9412
:1020C000B00F8EE20E94140F69857A858B859C85FE
:1020D0000E94A9039B01AC016D857E858F8598893F
:1020E0000E94C101DC01CB018D839E83AF83B88741
:1020F0006D817E818F81988520E030E040E050E066
:102100000E94790388234CF48D819E81AF81B8852C
:10211000B0588D839E83AF83B8876D817E818F8118
:10212000988520E030E048EC52E40E941F02DC0178
:10213000CB01BC01CD010E940704DC01CB018983E6
:102140009A83AB83BC8389819A81AB81BC818A30BD
:102150009105A105B1051CF480E30E94140F89814B
:102160009A81AB81BC81BC01CD010E94B00F609609
:102170000FB6F894DEBF0FBECDBFCF91DF910895AB
:102180000F93DF93CF93CDB7DEB728970FB6F894B0
:10219000DEBF0FBECDBF9C838B836D834E832F83A9
:1021A00008871A822FC08A81882F90E00896880FAE
:1021B000991F880F991F880F991F0E94FF0E19827F
:1021C0001BC08A81882F90E09C01220F331F220FB1
:1021D000331F220F331F8981882F90E0820F931FB6
:1021E0009C018B819C81FC01E20FF31F80810E9486
:1021F000140F89818F5F89838981883010F38A81E8
:102200008F5F8A839A818D81981768F28E816F81A2
:102210000E94910F1A8206C08A810E94140F8A813F
:102220008F5F8A839A818D819817B0F328960FB6B5
:10223000F894DEBF0FBECDBFCF91DF910F9108950F
:10224000DF93CF93CDB7DEB786E163E00E943B0812
:1022500085E163E00E943B0884E163E00E943B0863
:1022600088E161E00E943B0889E161E00E943B084F
:102270008AE161E00E943B088BE161E00E943B083B
:10228000CF91DF910895DF93CF93CDB7DEB7E0977D
:102290000FB6F894DEBF0FBECDBF1B8A8FEF8A8BBF
:1022A000CE01449698A78FA3E8EBF2E0FAA7E9A73E
:1022B000F3E0FBA7E9A5FAA5008089A59AA50196F8
:1022C0009AA789A7EFA1F8A500828FA198A50196EA
:1022D00098A78FA39BA591509BA7EBA5EE2351F741
:1022E00088E18F8B89E1888F8AE1898F8BE18A8FE2
:1022F000198AFFC08989282F30E0CE014496FC015D
:10230000E20FF31F808160E00E94B909188ADBC0E8
:102310008889282F30E0CE014796FC01E20FF31F99
:1023200080810E94130B8F878F85882309F0C8C096
:1023300080E090E0A0EAB0E48B879C87AD87BE8701
:102340006B857C858D859E8520E030E04AE755E4ED
:102350000E941F02DC01CB018F839887A987BA876F
:102360006F81788589859A8520E030E040E85FE3D9
:102370000E94790388232CF481E090E09E838D8372
:102380003FC06F81788589859A8520E03FEF4FE7D0
:1023900057E40E94190318164CF56B857C858D85D2
:1023A0009E8520E030E040E251E40E941F02DC0103
:1023B000CB01BC01CD010E944900DC01CB019E8311
:1023C0008D830FC080E991E09C838B838B819C81FE
:1023D0000197F1F79C838B838D819E8101979E836A
:1023E0008D838D819E81009769F714C06F817885F8
:1023F00089859A850E944900DC01CB019E838D83EB
:102400008D819E819A83898389819A810197F1F7D1
:102410009A8389838889282F30E0CE014796FC0172
:10242000E20FF31F80810E94130B8F878F85882313
:1024300009F046C0CE014B969DA78CA7ECEAF2E0CE
:10244000FFA7EEA7FCE0F8ABEEA5FFA500808EA5E8
:102450009FA501969FA78EA7ECA5FDA500828CA540
:102460009DA501969DA78CA798A9915098ABE8A926
:10247000EE2351F78889282F30E08989482F50E0D2
:10248000C901880F991F820F931F9E012F5F3F4F35
:10249000820F931F840F951FFC017A9680818A8B8F
:1024A0008889282F30E0CE014796FC01E20FF31F08
:1024B00080810E94130B882399F381E08B8B07C0E6
:1024C00088898F5F888B8889843008F421CF898937
:1024D000282F30E0CE014496FC01E20FF31F8081EB
:1024E00061E00E94B9098B89813039F089898F5F59
:1024F000898B8989833008F4FDCE8A89E0960FB6EE
:10250000F894DEBF0FBECDBFCF91DF910895DF936A
:10251000CF93CDB7DEB78FE162E00E943B08CF9149
:10252000DF910895DF93CF93CDB7DEB72E970FB627
:10253000F894DEBF0FBECDBF8FE161E00E94B90904
:1025400080E090E0A8E4B2E48B879C87AD87BE87EB
:102550006B857C858D859E8520E030E04AE755E4DB
:102560000E941F02DC01CB018F839887A987BA875D
:102570006F81788589859A8520E030E040E85FE3C7
:102580000E94790388232CF481E090E09E838D8360
:102590003FC06F81788589859A8520E03FEF4FE7BE
:1025A00057E40E94190318164CF56B857C858D85C0
:1025B0009E8520E030E040E251E40E941F02DC01F1
:1025C000CB01BC01CD010E944900DC01CB019E83FF
:1025D0008D830FC080E991E09C838B838B819C81EC
:1025E0000197F1F79C838B838D819E8101979E8358
:1025F0008D838D819E81009769F714C06F817885E6
:1026000089859A850E944900DC01CB019E838D83D8
:102610008D819E819A83898389819A810197F1F7BF
:102620009A8389838FE160E00E94B9092E960FB6E4
:10263000F894DEBF0FBECDBFCF91DF910895DF9339
:10264000CF93CDB7DEB72E970FB6F894DEBF0FBE8F
:10265000CDBF8FE161E00E94B90980E090E0A0EA7F
:10266000B2E48B879C87AD87BE876B857C858D8523
:102670009E8520E030E04AE755E40E941F02DC011D
:10268000CB018F839887A987BA876F8178858985E1
:102690009A8520E030E040E85FE30E9479038823D8
:1026A0002CF481E090E09E838D833FC06F8178851C
:1026B00089859A8520E03FEF4FE757E40E94190390
:1026C00018164CF56B857C858D859E8520E030E065
:1026D00040E251E40E941F02DC01CB01BC01CD01AC
:1026E0000E944900DC01CB019E838D830FC080E9ED
:1026F00091E09C838B838B819C810197F1F79C8374
:102700008B838D819E8101979E838D838D819E8198
:10271000009769F714C06F81788589859A850E9432
:102720004900DC01CB019E838D838D819E819A833C
:10273000898389819A810197F1F79A8389838FE14F
:1027400060E00E94B9092E960FB6F894DEBF0FBE66
:10275000CDBFCF91DF910895DF93CF93CDB7DEB793
:10276000AA970FB6F894DEBF0FBECDBF8FE161E030
:102770000E94B90980E090E0A6E1B3E48FA398A796
:10278000A9A7BAA76FA178A589A59AA520E030E0EE
:102790004AE755E40E941F02DC01CB018BA39CA3F6
:1027A000ADA3BEA36BA17CA18DA19EA120E030E0D2
:1027B00040E85FE30E94790388232CF481E090E0F5
:1027C0009AA389A33FC06BA17CA18DA19EA120E00B
:1027D0003FEF4FE757E40E94190318164CF56FA11D
:1027E00078A589A59AA520E030E040E251E40E9456
:1027F0001F02DC01CB01BC01CD010E944900DC01BC
:10280000CB019AA389A30FC080E991E098A38F8F91
:102810008F8D98A10197F1F798A38F8F89A19AA125
:1028200001979AA389A389A19AA1009769F714C077
:102830006BA17CA18DA19EA10E944900DC01CB016E
:102840009AA389A389A19AA19E8F8D8F8D8D9E8D2C
:102850000197F1F79E8F8D8F8FE160E00E94B9099B
:1028600080E090E0A6E1B3E4898F9A8FAB8FBC8FB4
:10287000698D7A8D8B8D9C8D20E030E04AE755E4A0
:102880000E941F02DC01CB018D8B9E8BAF8BB88F1A
:102890006D897E898F89988D20E030E040E85FE384
:1028A0000E94790388232CF481E090E09C8B8B8B31
:1028B0003FC06D897E898F89988D20E03FEF4FE77B
:1028C00057E40E94190318164CF5698D7A8D8B8D8B
:1028D0009C8D20E030E040E251E40E941F02DC01C8
:1028E000CB01BC01CD010E944900DC01CB019C8BD6
:1028F0008B8B0FC080E991E09A8B898B89899A89AB
:102900000197F1F79A8B898B8B899C8901979C8B16
:102910008B8B8B899C89009769F714C06D897E89A0
:102920008F89988D0E944900DC01CB019C8B8B8B99
:102930008B899C89988B8F878F8598890197F1F770
:10294000988B8F878FE161E00E94B90980E090E069
:10295000A6E1B3E48B879C87AD87BE876B857C85BA
:102960008D859E8520E030E04AE755E40E941F02F5
:10297000DC01CB018F839887A987BA876F8178851F
:1029800089859A8520E030E040E85FE30E94790382
:1029900088232CF481E090E09E838D833FC06F817B
:1029A000788589859A8520E03FEF4FE757E40E94BC
:1029B000190318164CF56B857C858D859E8520E066
:1029C00030E040E251E40E941F02DC01CB01BC0177
:1029D000CD010E944900DC01CB019E838D830FC095
:1029E00080E991E09C838B838B819C810197F1F737
:1029F0009C838B838D819E8101979E838D838D81A6
:102A00009E81009769F714C06F81788589859A85C2
:102A10000E944900DC01CB019E838D838D819E81C4
:102A20009A83898389819A810197F1F79A838983AF
:102A30008FE160E00E94B909AA960FB6F894DEBF54
:102A40000FBECDBFCF91DF910895DF93CF93CDB768
:102A5000DEB76C970FB6F894DEBF0FBECDBF8FE127
:102A600061E00E94B90980E090E0AAE7B3E4898FB1
:102A70009A8FAB8FBC8F698D7A8D8B8D9C8D20E06A
:102A800030E04AE755E40E941F02DC01CB018D8B48
:102A90009E8BAF8BB88F6D897E898F89988D20E052
:102AA00030E040E85FE30E94790388232CF481E062
:102AB00090E09C8B8B8B3FC06D897E898F89988D30
:102AC00020E03FEF4FE757E40E94190318164CF53A
:102AD000698D7A8D8B8D9C8D20E030E040E251E451
:102AE0000E941F02DC01CB01BC01CD010E94490004
:102AF000DC01CB019C8B8B8B0FC080E991E09A8B22
:102B0000898B89899A890197F1F79A8B898B8B89AF
:102B10009C8901979C8B8B8B8B899C89009769F78B
:102B200014C06D897E898F89988D0E944900DC01CF
:102B3000CB019C8B8B8B8B899C89988B8F878F8506
:102B400098890197F1F7988B8F878FE160E00E9459
:102B5000B90980E090E0AAE7B3E48B879C87AD8752
:102B6000BE876B857C858D859E8520E030E04AE7B9
:102B700055E40E941F02DC01CB018F839887A9874F
:102B8000BA876F81788589859A8520E030E040E8B2
:102B90005FE30E94790388232CF481E090E09E8318
:102BA0008D833FC06F81788589859A8520E03FEFCE
:102BB0004FE757E40E94190318164CF56B857C8586
:102BC0008D859E8520E030E040E251E40E941F02A6
:102BD000DC01CB01BC01CD010E944900DC01CB012D
:102BE0009E838D830FC080E991E09C838B838B81D2
:102BF0009C810197F1F79C838B838D819E81019746
:102C00009E838D838D819E81009769F714C06F81AB
:102C1000788589859A850E944900DC01CB019E83D5
:102C20008D838D819E819A83898389819A81019781
:102C3000F1F79A8389836C960FB6F894DEBF0FBEC6
:102C4000CDBFCF91DF910895DF93CF93CDB7DEB79E
:102C50002E970FB6F894DEBF0FBECDBF8FE161E0B7
:102C60000E94B90980E090E0A6E9B3E48B879C87D5
:102C7000AD87BE876B857C858D859E8520E030E0A5
:102C80004AE755E40E941F02DC01CB018F8398873D
:102C9000A987BA876F81788589859A8520E030E099
:102CA00040E85FE30E94790388232CF481E090E000
:102CB0009E838D833FC06F81788589859A8520E0CA
:102CC0003FEF4FE757E40E94190318164CF56B8548
:102CD0007C858D859E8520E030E040E251E40E94B5
:102CE0001F02DC01CB01BC01CD010E944900DC01C7
:102CF000CB019E838D830FC080E991E09C838B8301
:102D00008B819C810197F1F79C838B838D819E81C0
:102D100001979E838D838D819E81009769F714C0F2
:102D20006F81788589859A850E944900DC01CB01F5
:102D30009E838D838D819E819A83898389819A81E7
:102D40000197F1F79A8389838FE160E00E94B909C6
:102D50002E960FB6F894DEBF0FBECDBFCF91DF9198
:102D60000895DF93CF93CDB7DEB780E061E00E9496
:102D70003B0880E061E00E94B909CF91DF9108959E
:102D8000DF93CF93CDB7DEB780E00E94130BCF91D6
:102D9000DF910895DF93CF93CDB7DEB71092CC02C9
:102DA0001092C802CF91DF910895DF93CF93CDB7F2
:102DB000DEB78091CB02833091F50E94C016882344
:102DC00071F18091C8028F5F8093C80281E00E94F8
:102DD000FF0E80E690E00E94680F0E941F13109281
:102DE000CD020E94B8188091C802833058F460EA7E
:102DF0007FE080E090E00E9478061092CD020E9471
:102E0000E8180DC01092C8021092CB0281E00E9417
:102E1000FF0E8CE690E00E94680F0E94E818CF91A8
:102E2000DF910895DF93CF93CDB7DEB780E00E94A6
:102E3000820BA6E2B0E0E6E2F0E0808180648C9351
:102E4000E6E2F0E0808182958F70882F90E08170BB
:102E500090700097A9F3A6E2B0E0E6E2F0E080818E
:102E600080618C9380E00E94CC0B9093C70280938A
:102E7000C6028091C6029091C70223E08533920773
:102E800008F43EC082E08093CC0281E00E94FF0EF5
:102E900088E790E00E94680F22C00E942515A6E2F4
:102EA000B0E0E6E2F0E0808180648C93E6E2F0E05E
:102EB000808182958F70882F90E08170907000974C
:102EC000A9F3A6E2B0E0E6E2F0E0808180618C93B5
:102ED00080E00E94CC0B9093C7028093C602809141
:102EE000C6029091C70222E0893F9207B0F6109285
:102EF000CC0281E00E94FF0E81E890E00E94680F02
:102F0000CF91DF910895DF93CF93CDB7DEB783E004
:102F10008093CC0281E00E94FF0E87E890E00E943F
:102F2000680F0E9424161092CD020E94B8180E94C9
:102F3000431180339105D9F71092CC0281E00E94B1
:102F4000FF0E81E890E00E94680FCF91DF91089515
:102F5000DF93CF930F92CDB7DEB70E9412170E9476
:102F600043118033910519F40E94831702C08091A8
:102F7000CC020F90CF91DF910895DF93CF930F9202
:102F8000CDB7DEB70E944311898389818133C0F0B8
:102F900089818533A8F48091CA02282F30E0898185
:102FA0008053F901EC5CFC4F80838091CA028F5FF3
:102FB0008093CA028091CA028A3010F01092CA022D
:102FC0000F90CF91DF910895DF93CF930F92CDB7FC
:102FD000DEB781E089831CC089810E94DD0C8823D3
:102FE000A1F08091CA02882F90E0FC01EC5CFC4FBC
:102FF000898180838091CA028F5F8093CA02809109
:10300000CA028A3010F01092CA0289818F5F8983C8
:103010008981853008F30F90CF91DF910895DF9378
:10302000CF93CDB7DEB79091C9028091CA029817AD
:10303000A9F08091C902882F90E0FC01EC5CFC4F64
:1030400080818093A9028091C9028F5F8093C90219
:103050008091C9028A3010F01092C902CF91DF919D
:103060000895DF93CF93CDB7DEB781E00E94FF0EC6
:1030700081E990E00E94680F8091AA02882F90E079
:10308000A0E0B0E0BC01CD010E94B00FCF91DF9174
:103090000895DF93CF93CDB7DEB79091A9028091C9
:1030A000AA02891720F51AC068EB7BE080E090E067
:1030B0000E9478068091AA028F5F8093AA02809175
:1030C000AA02823028F08091AA0281500E94FE0D4F
:1030D0008091AA020E94BF0D0E9431189091AA020D
:1030E0008091A902981700F31092CC0229C0909108
:1030F000A9028091AA02981718F51AC068EB7BE024
:1031000080E090E00E9478068091AA02815080932E
:10311000AA028091AA02823028F08091AA028F5FD1
:103120000E94FE0D8091AA020E94BF0D0E943118DC
:103130009091AA028091A902891700F31092CC0203
:103140000E94B818CF91DF910895DF93CF93CDB748
:10315000DEB71092CB0281E08093AA021092CD02DA
:1031600085ED96E160E00E947207CF91DF910895AE
:10317000DF93CF93CDB7DEB78091CD02882329F5B9
:1031800081E08093CD0281E08093CB0281E00E94B8
:10319000FF0E8AE990E00E94680F68EE73E080E01D
:1031A00090E00E94780682E08093CB0281E00E944A
:1031B000FF0E87EA90E00E94680F60EA7FE080E0FF
:1031C00090E00E9478061092CD02CF91DF91089591
:1031D000DF93CF93CDB7DEB78091CD028823F1F492
:1031E00081E08093CD0283E08093CB0281E00E9456
:1031F000FF0E81EB90E00E94680F68EE73E080E0C4
:1032000090E00E9478061092CB0281E00E94FF0EAF
:103210008EEB90E00E94680F1092CD02CF91DF916B
:103220000895DF93CF9300D0CDB7DEB78091CB0266
:10323000282F30E03A83298389819A818130910552
:1032400031F029813A812330310521F005C00E94F7
:10325000B81802C00E94E8180F900F90CF91DF912C
:103260000895DF93CF93CDB7DEB71092CC02CF9104
:10327000DF910895DF93CF9300D0CDB7DEB7809173
:10328000CC02282F30E03A83298389819A818130CA
:103290009105F9F029813A81223031052CF4898198
:1032A0009A81009761F01EC029813A812230310550
:1032B000D9F089819A8183309105B1F013C0909142
:1032C000A9028091AA02981779F081E08093CC023C
:1032D0000BC09091A9028091AA02981729F410922C
:1032E000CC0202C01092CC020F900F90CF91DF91D0
:1032F0000895DF93CF930F92CDB7DEB719823BC00D
:103300008981882F90E0880F991F9C01220F331F1D
:10331000220F331F820F931FFC01E153FD4F1182D7
:1033200010828981282F30E0C901880F991F880FEA
:10333000991F820F931F0196880F991FFC01E1537B
:10334000FD4F10821182128213828981882F90E0B2
:10335000880F991F9C01220F331F220F331F820FEA
:10336000931FFC01EB52FD4F1082118212821382D7
:1033700089818F5F898389818A3010F281E09BE1A6
:103380000E9462060F90CF91DF9108950F931F93D3
:10339000DF93CF930F92CDB7DEB78091CE02882313
:1033A00009F4A4C01092CE0219829CC08981882F92
:1033B00090E0880F991F9C01220F331F220F331FAB
:1033C000820F931FFC01E153FD4F80819181009793
:1033D00009F485C08981882F90E0880F991F9C018E
:1033E000220F331F220F331F820F931FFC01EB525A
:1033F000FD4F80819181A281B3810097A105B10524
:1034000009F042C08981882F90E0880F991F9C01A4
:10341000220F331F220F331F820F931FFC01E15332
:10342000FD4F0190F081E02D09958981082F10E072
:103430008981282F30E0C901880F991F880F991FB3
:10344000820F931F0196880F991FFC01E153FD4FD6
:1034500080819181A281B381AC01BD014150504076
:1034600060407040C801880F991F9C01220F331FD4
:10347000220F331F820F931FFC01EB52FD4F40833D
:103480005183628373832BC08981082F10E0C801A8
:10349000880F991F9C01220F331F220F331F820FA9
:1034A000931FFC01EB52FD4F80819181A281B3817A
:1034B000AC01BD014150504060407040C801880FD0
:1034C000991F9C01220F331F220F331F820F931F5E
:1034D000FC01EB52FD4F40835183628373838981EA
:1034E0008F5F898389818A3008F460CF0F90CF91F4
:1034F000DF911F910F9108950F931F93DF93CF9347
:10350000CDB7DEB72C970FB6F894DEBF0FBECDBF98
:103510009B838A834C835D836E837F8308871987AF
:103520002A873B8719825CC08981882F90E0880FA9
:10353000991F9C01220F331F220F331F820F931FED
:10354000FC01E153FD4F80819181009709F045C056
:103550008981882F90E0880F991F9C01220F331FCB
:10356000220F331F820F931FFC01E153FD4F8A810D
:103570009B81918380838981282F30E0C901880F46
:10358000991F880F991F820F931F0196880F991F0B
:10359000FC01E153FD4F8C819D81AE81BF81808311
:1035A0009183A283B3838981882F90E0880F991F2C
:1035B0009C01220F331F220F331F820F931FFC0128
:1035C000EB52FD4F88859985AA85BB8580839183C1
:1035D000A283B38381E08C8708C089818F5F898350
:1035E00089818A3008F4A0CF1C868C852C960FB672
:1035F000F894DEBF0FBECDBFCF91DF911F910F9129
:103600000895DF93CF93CDB7DEB781E08093CE02EC
:10361000CF91DF910895DF93CF93CDB7DEB70E94AE
:10362000A518CF91DF910895DF93CF93CDB7DEB783
:103630000E94A8178091CC028823B9F40E94BD177C
:103640000E94E4170E940F189091A9028091AA028B
:10365000981739F081E08093CC020E94E8180E940C
:1036600049180E9431180E941119CF91DF910895D5
:10367000DF93CF9300D0CDB7DEB79A83898381E003
:103680000E94FF0E89819A810E94680F0F900F900F
:10369000CF91DF910895DF93CF9300D00F92CDB7F4
:1036A000DEB79A8389836B8381E00E94FF0E898154
:1036B0009A810E94680F8B81882F90E0A0E0B0E093
:1036C000BC01CD010E94B00F0F900F900F90CF91D1
:1036D000DF910895DF93CF9300D00F92CDB7DEB77F
:1036E000898380E00E94FE0D81E00E94FE0D82E051
:1036F0000E94FE0D83E00E94FE0D8981282F30E09C
:103700003B832A838A819B8182309105D1F02A8173
:103710003B812330310534F48A819B8181309105CE
:1037200061F01AC02A813B812330310571F08A8112
:103730009B818430910569F00FC080E00E94BF0D2D
:103740000BC081E00E94BF0D07C082E00E94BF0D48
:1037500003C083E00E94BF0D0F900F900F90CF9198
:10376000DF910895DF93CF93CDB7DEB70E94290F85
:103770000E9420110E94A80D0E94C60C0E94871270
:103780000E9450068DE161E00E943B0881E0809339
:10379000AB02109233038AEC90E00E94381B60ED7C
:1037A00077E080E090E00E9478062091AB028AEDFD
:1037B00090E0622F0E944B1B8091AB020E946A1B1B
:1037C000CF91DF910895DF93CF930F92CDB7DEB7FE
:1037D000898316C060ED77E080E090E00E94780673
:1037E0008091AB028F5F8093AB022091AB0287EE9A
:1037F00090E0622F0E944B1B8091AB020E946A1BDB
:103800009091AB028981981728F316C060ED77E09C
:1038100080E090E00E9478068091AB028150809316
:10382000AB022091AB0282EF90E0622F0E944B1B13
:103830008091AB020E946A1B9091AB02898189172B
:1038400028F32091AB028FEF90E0622F0E944B1B78
:103850000E94AC1360ED77E080E090E00E94780673
:10386000109233030F90CF91DF910895DF93CF93A0
:103870000F92CDB7DEB7898380913303882369F433
:103880008EE091E00E94381B0E941F1360ED77E0EC
:1038900080E090E00E9478061AC09091AB02898186
:1038A000891781F42091AB0280E291E0622F0E949F
:1038B0004B1B0E94921260ED77E080E090E00E9446
:1038C000780605C00E94921289810E94E31B0F9026
:1038D000CF91DF910895DF93CF93CDB7DEB71092EC
:1038E000330380E391E00E94381B0E94921264EF40
:1038F00071E080E090E00E9478068DE391E00E9404
:10390000381B60ED77E080E090E00E947806CF9170
:10391000DF910895DF93CF93CDB7DEB781E0809339
:10392000330389E491E00E94381B0E94921264EFF5
:1039300071E080E090E00E94780686E591E00E94C8
:10394000381B60ED77E080E090E00E947806CF9130
:10395000DF910895DF93CF9300D0CDB7DEB78DE12F
:103960000E94130B882311F01A8211C065E070E0E9
:1039700080E090E00E9478068DE10E94130B88237E
:1039800019F481E0898301C0198289818A838A813F
:103990000F900F90CF91DF910895DF93CF93CDB724
:1039A000DEB780E00E94FE0D81E00E94FE0D82E005
:1039B0000E94FE0D83E00E94FE0D83E691E00E94CE
:1039C000381B0E9424160E9443118332E1F70E94A3
:1039D000921264EF71E080E090E00E9478062091FE
:1039E000AB0284E791E0622F0E944B1B8091AB02F7
:1039F0000E946A1B60ED77E080E090E00E9478060C
:103A0000CF91DF910895DF93CF930F92CDB7DEB7BB
:103A100081E089830CC089810E94DD0C813021F412
:103A200089810E94361C06C089818F5F89838981C4
:103A3000853088F30F90CF91DF910895DF93CF9376
:103A400000D00F92CDB7DEB789838981282F30E06F
:103A50003B832A838A819B818533910584F42A8163
:103A60003B8121333105BCF48A819B8183329105EE
:103A700079F02A813B812A32310539F011C08A81DF
:103A80009B818F3F9105C1F00BC00E946B1C14C03D
:103A90000E948A1C11C0898180530E94361C0CC070
:103AA00083E891E00E94381B0E941F1360ED77E0CD
:103AB00080E090E00E9478060F900F900F90CF91D9
:103AC000DF910895DF93CF930F92CDB7DEB781E0FA
:103AD00089830E94290F0E9420110E949E0B0E9440
:103AE00050060E9433070E94B1160E94A80D0E9442
:103AF000C60C0E94A5180E94CA1689810E94BF0D9B
:103B00000E94A8178091CC028823D1F70E94BD178C
:103B10000E94E4170E940F188981282F30E08091BD
:103B2000A9029091AA022817390739F081E0809301
:103B3000CC020E94E8180E9449180E943118E0CF78
:103B4000629FD001739FF001829FE00DF11D649F81
:103B5000E00DF11D929FF00D839FF00D749FF00D0D
:103B6000659FF00D9927729FB00DE11DF91F639FAE
:103B7000B00DE11DF91FBD01CF011124089597FB80
:103B8000092E05260ED057FD04D014D00AD0001CF3
:103B900038F450954095309521953F4F4F4F5F4FEA
:103BA0000895F6F790958095709561957F4F8F4FAA
:103BB0009F4F0895A1E21A2EAA1BBB1BFD010DC049
:103BC000AA1FBB1FEE1FFF1FA217B307E407F507CD
:103BD00020F0A21BB30BE40BF50B661F771F881FA9
:103BE000991F1A9469F760957095809590959B013F
:103BF000AC01BD01CF0108952F923F924F925F9289
:103C00006F927F928F929F92AF92BF92CF92DF92EC
:103C1000EF92FF920F931F93CF93DF93CDB7DEB751
:103C2000CA1BDB0B0FB6F894DEBF0FBECDBF0994E5
:103C30002A88398848885F846E847D848C849B843C
:103C4000AA84B984C884DF80EE80FD800C811B814A
:103C5000AA81B981CE0FD11D0FB6F894DEBF0FBE79
:0A3C6000CDBFED010895F894FFCFE9
:103C6A004F42535452554354494F4E00464F5243C4
:103C7A004520434C4F5345004F5645524C4F414403
:103C8A0000524541445900454D455247454E435916
:103C9A0000466C6F6F72203A2000444F4F52204FFB
:103CAA0050454E494E4700444F4F52204F50454EC3
:103CBA0000444F4F5220434C4F53494E4700444F04
:103CCA004F5220434C4F53454400456C657661740E
:103CDA006F722053797374656D0052656164792E31
:103CEA0020466C723A20004D6F76696E67205570D7
:103CFA0020004D6F76696E6720446F776E20004111
:103D0A007272697665642E20466C723A2000436CA2
:103D1A006F736520446F6F72204669727374210055
:103D2A00416C726561647920617420466C7220006E
:103D3A00446F6F72204F70656E696E6700446F6FD3
:103D4A0072204F70656E656400446F6F7220436C19
:103D5A006F73696E6700446F6F7220436C6F73658F
:103D6A00642E00434142494E20454D455247454E37
:103D7A0043592100526573756D65642E20466C7235
:103D8A003A2000496E76616C6964204B657921009E
:103D9A000000000000000000000102020303030308
:103DAA0004040404040404040505050505050505C1
:103DBA0005050505050505050606060606060606A1
:103DCA000606060606060606060606060606060689
:103DDA000606060606060606070707070707070771
:103DEA000707070707070707070707070707070759
:103DFA000707070707070707070707070707070749
:103E0A000707070707070707070707070707070738
:103E1A000707070707070707080808080808080820
:103E2A000808080808080808080808080808080808
:103E3A0008080808080808080808080808080808F8
:103E4A0008080808080808080808080808080808E8
:103E5A0008080808080808080808080808080808D8
:103E6A0008080808080808080808080808080808C8
:103E7A0008080808080808080808080808080808B8
:103E8A0008080808080808080808080808080808A8
:103E9A00080808080808080804002200000122008F
:103EAA0000022200000322000001010131323334F2
:0C3EBA0035363738392A3023161514002D
:00000001FF
